S01C00005B6C77746F6F6C7320342E32335D207073796D6F6E2E61736DFB
S113FC0010CEF3B71F416F808CF3E026F9108EFFFE
S113FC10BAECA1ED818CF40026F78EF3DECC030858
S113FC20BDFD638651BDFD63B6F800817E2603BD2C
S113FC30F80010FFF3DC8EFC4ABDFD97BDFD448D3A
S113FC400F26F3BDFD75AD9420EC0D0A436D64BF22
S113FC50108EF3D6A7A4BEF3D427048D0527108EE7
S113FC60FFA3E6808D0A3A270630026D842AF5390F
S113FC703434A680A1A026035A26F735B4FCF3EA4F
S113FC80BEF3EC3416BEF3F04F5FBFF3EAFDF3ECC2
S113FC90CC1108BDFD638D1BCC5108BEF3F0BDFD36
S113FCA0633516FDF3EABFF3EC7DF3D72745863FB2
S113FCB07EFD581F42BDFD44815326F9BDFD44819C
S113FCC0392730813126F17FF3D78D2880021F89AF
S113FCD08D22A7E38D1EA76135108D185A2708A71A
S113FCE084A180260720F37CF3D727C986FFB7F3C6
S113FCF0D71F24398D3327EF4848484834028D29CB
S113FD0027E5ABE4A7E4BBF3D7B7F3D735825F8E1F
S113FD1000008D1527111E01584958495849584962
S113FD201E0130865C20EB5D398D19340280302B46
S113FD300E810923068007810A2504810F2302A668
S113FD40E4A1E0393414BEF3EAC6018D16847FBE03
S113FD50F3EC3402260735963416BEF3EEC6028D54
S113FD60023596347CAD980435FC8D111E898D03C3
S113FD701E89398D08340286208DDD358234024493
S113FD804444448D06A6E48D023582840F8B308171
S113FD903923C58B0720C1A684847F8DBB6D802A3F
S113FDA0F6393402860D8DB0860A20CD8D30270EAB
S113FDB0BFF3D88D292604BEF3D85CBFF3DABEF3B3
S113FDC0EE3412BEF3F0BFF3EE5D27028D1335025D
S113FDD0810D2604C6398D543510BFF3EE397EFDEE
S113FDE00EBEF3D8C6318D447FF3D7FCF3DA34105A
S113FDF0A3E14D2604C1102502C60F5C1F988B0396
S113FE008D20341035028D1A35028D16A6808D1280
S113FE105A26F9B6F3D7438D09311F10BCF3DA26FD
S113FE20C339BDFD7DBBF3D7B7F3D739BDFDA2867A
S113FE30538D021F987EFD588DA42603BEF3D2BFB6
S113FE40F3D2BDFDA21F10BDFD6AA680BDFD731FC8
S113FE50128D8B1E012709E73FE13F2703BDFCAE4E
S113FE601F101F21810D2708815E26D3308320CFE8
S113FE703910FEF3DCBDFD0E2702AF6AA6E48A80CA
S113FE80A7E43BAE6A301FAF6AC6FFBDFF4310FF55
S113FE90F3DCBDFDA28D3C7EFC36BDFD44BDFDA260
S113FEA05F8EFEC7A18527075CC10B23F72024348E
S113FEB0048D37BDFD0E3504270C31A5C1031F1079
S113FEC02302A7A0E7A4394341424458585959553D
S113FED05550508EFEC75FA6858D0F5CC10B23F76E
S113FEE086538D1B108EF3D0200A8D1310BEF3DCC5
S113FEF0C1032306A6A5BDFD7D5CA6A57EFD738D6D
S113FF0002863D7EFD58BDFD0E27188D27ECA427E3
S113FF10068D2626F8200CAFA42708A684A72286DF
S113FF203FA784BDFDA28D0CECA42703BDFD6A8D03
S113FF300826F539108EF3C3393123108CF3D239E6
S113FF40BDFD0E8DEF5D2706ACA4270920028D05AB
S113FF508DE726F139AEA42708A622A7846F206F67
S113FF6021396F08AE0654250C5425115425175415
S113FF702402A78439E6845424FBA60139E684C507
S113FF800227FAA70139A6848403396E9FF3F26E1F
S113FF909FF3F46E9FF3F66E9FF3F86E9FF3FA6E81
S113FFA09FF3FC014DFE3847FE714CFC7D53FDACC4
S113FFB052FE9A42FF0655FF40FF434EFF62F7FE92
S113FFC00000F3DEF3DEF3DEF3DEF3DEFE8EFE8E00
S113FFD0FE82FE8EFE83FE8EF000FFFFFFFFF380A5
S113FFE0FD73FD6AFD0EFD97FD44FD58FD63FC3273
S113FFF0FC00FF8BFF8FFF93FF97FF9BFF9FFC008D
S5030040BC
S9030000FC
